:1001CA00090F000A0A0A0A0A0A0A0A0B193F065BF9
:0801DA004F666D7D077F6F0089
:1001E3005389F0438901758A18758CFCC28DD28CB2
:0701F300D2A9D2AFC2B9226C
:1001FA001201E31200038F18E51860F7FD7C007FF7
:06020A000112022680ED46
:03000B0002009A56
:10009A00C0E0C0F0C083C082C0D075D000C000C02C
:0D00AA0001C002C003C004C005C006C007AD
:1000B700758A18758CFC0509E50970020508050B9A
:1000C700E50B7002050AC3E5099414E5089400409E
:1000D70009120176750800750900C3E50B9402E55E
:0E00E7000A940040091201AF750A00750B0063
:1000F500D007D006D005D004D003D002D001D0005F
:0B010500D0D0D082D083D0F0D0E03208
:05000300AF24E4F52428
:0100080022D5
:10017600850C0D1202108F0CE50DB40107E50C700D
:1001860003752401E50DB40207E50C70037524021E
:10019600E50DB40307E50C7003752403E50DB404FF
:0801A60007E50C700375240449
:0101AE00222E
:10021000E4FF20B1010F20B0027F0220B2027F0371
:0502200020B3027F0481
:0102250022B6
:10011000E4F580EF14B40800505490012875F00302
:10012000A4C58325F0C58373020140020144020186
:100130004802014C020150020158020160020168AC
:10014000D2A4800ED2A48012D2A48016D2A4801A87
:10015000C2A4D2A3D2A28016C2A4D2A3C2A2800EED
:10016000C2A4C2A3D2A28006C2A4C2A3C2A274190E
:060170002DF8E6F58022E7
:1001AF00740F250EF8E6FD7C00AF0E120110050E40
:0A01BF00E50EC394094003750E011C
:0101C9002213
:09022600AE05740F2FF8A60622A4
:0300000002000EED
:0C000E00787FE4F6D8FD758124020055CF
:10001A000201FAE493A3F8E493A34003F68001F201
:10002A0008DFF48029E493A3F85407240CC8C333E7
:10003A00C4540F4420C8834004F456800146F6DFB6
:10004A00E4800B01020408102040809001CAE47E7B
:10005A00019360BCA3FF543F30E509541FFEE493AB
:10006A00A360010ECF54C025E060A840B8E493A372
:10007A00FAE493A3F8E493A3C8C582C8CAC583CA9D
:10008A00F0A3C8C582C8CAC583CADFE9DEE780BE55
:0101E200001C
:00000001FF
