:1003B800494E5055542050415353574F52440053BF
:1003C800554343455353004552524F522020002075
:0D03D8002020202020202020202020200098
:10018C0012046E7BFF7A0379B87D017F011203E5BF
:10019C001200038F1AE51A60F7D3940A5033C3E5A3
:1001AC00199404E51894005028AE1BAF1C7C007DFC
:1001BC000A1202738E1B8F1CE51A75F00A84E5F087
:1001CC00251CF51CE4351BF51B0519E519700205FA
:1001DC0018E51A640B7037E51CB4371CE51BB42505
:1001EC0017E51964044518700F7BFF7A0379C77DF6
:1001FC00067F021203E580167BFF7A0379CF7D061A
:10020C007F021203E5E4F51BF51CF518F519E51A48
:10021C00B40C16E4F51BF51CF518F5197BFF7A03E5
:10022C0079D77D067F021203E5750C04AB1CAA1B63
:0A023C007D017F0212042602019CDE
:10045900EF1FAC0670011E4C600A7D027CEFDCFECA
:04046900DDFC80EC4A
:01046D00226C
:06048200C2A58F80D2A785
:080488007F027EEFDEFEDFFCC7
:010490002249
:0A049D00C2A6120482C2A70204885E
:10040800CFCDCFCECCCE1202857C007D0A120285DC
:04041800ED2430FFA0
:0A041C00D2A6120482C2A7020488CF
:10044300AE07BE0104ED148006BE0209ED243F444D
:0604530080FF12049D224F
:10046E007F3812049D7F0C12049D7F0612049D7F1F
:04047E000102049DD6
:0A04A700AC03120443AF0402041C6E
:0603E5008B088A09890A59
:1003EB00120443E4FDAB08AA09A90A8D82758300A8
:0C03FB00120246FF600612041C0D80E98F
:0104070022D2
:0C0385007F0AEA24FFFDE434FFFC7E0048
:080391008E0D8F0E8C0F8D10F4
:100399007F017E00E4FBEBC39510E50F6480F874E0
:0E03A9008098500AAC0DAD0E1202730B80E866
:0103B7002223
:040426008A0A8B0BA8
:10042A00120443AA0CEAD39400400D120385AC0AC5
:08043A00AD0B1204081A80ED5D
:010442002297
:1002DA00120443C3EA64809480400B7F2B12041CEF
:1002EA008A168B17800E7F2D12041CC3E49BF51708
:1002FA00E49AF516AA15EAD39400400D120385ACC8
:09030A0016AD171204081A80ED6B
:0103130022C7
:040314008A1F8B2091
:10031800120443AA21EAD3940040297F10120387CC
:10032800AC1FAD20CFCDCFCECCCE120285EF540F6F
:10033800FEC3940AEE5004243080022437FF1204CE
:040348001C1A80D12A
:01034C00228E
:04034D008A248B254E
:10035100120443AA26EAD394004028EA24FFFDE4CC
:1003610034FFFC7F027E00120391AC24AD25CFCD7A
:10037100CFCECCCE120285EF54012430FF12041CE3
:030381001A80D20D
:010384002256
:10000300E4F5087590FFC2932097137F14FE120442
:10001300593097FD7F147E0012045975080120960C
:10002300147F147E001204593096FD7F147E001253
:1000330004597508052095147F147E001204593065
:1000430095FD7F147E001204597508092094147FCE
:10005300147E001204593094FD7F147E001204595B
:1000630075080D7590FFC2922097147F147E0012BD
:1000730004593097FD7F147E00120459750802203D
:1000830096147F147E001204593096FD7F147E006F
:100093001204597508062095147F147E0012045922
:1000A3003095FD7F147E0012045975080A209414BC
:1000B3007F147E001204593094FD7F147E001204D5
:1000C3005975080E7590FFC2912097147F147E0016
:1000D3001204593097FD7F147E00120459750803EA
:1000E3002096147F147E001204593096FD7F147EEF
:1000F300001204597508072095147F147E0012041A
:10010300593095FD7F147E0012045975080B209415
:10011300147F147E001204593094FD7F147E001264
:10012300045975080F7590FFC2902097147F147EB1
:10013300001204593097FD7F147E0012045975088C
:10014300042096147F147E001204593096FD7F1408
:100153007E001204597508082095147F147E00123E
:1001630004593095FD7F147E0012045975080C2044
:1001730094147F147E001204593094FD7F147E0082
:08018300120459750810AF08C1
:01018B002251
:0300000002049166
:0C049100787FE4F6D8FD75812602018C0E
:10024600BB010CE58229F582E5833AF583E022506D
:1002560006E92582F8E622BBFE06E92582F8E222B7
:0D026600E58229F582E5833AF583E49322D1
:10027300EF8DF0A4A8F0CF8CF0A428CE8DF0A42E9F
:02028300FE2259
:10028500BC000BBE0029EF8DF084FFADF022E4CC5D
:10029500F875F008EF2FFFEE33FEEC33FCEE9DEC26
:1002A500984005FCEE9DFE0FD5F0E9E4CEFD22ED6C
:1002B500F8F5F0EE8420D21CFEADF075F008EF2FB6
:1002C500FFED33FD4007985006D5F0F222C398FDA7
:0502D5000FD5F0EA2244
:00000001FF
