:0603390048656C6C6F00CA
:100142001202D07BFF7A0379397D017F01120229E5
:100152007D0C7C007F011202057F057E001202BB2E
:100162007F011201AC8F22EFFB7A00750C037D0137
:070172007F0212028880FEEB
:0602E400C2A58F80D2A725
:0802EA007F027EEFDEFEDFFC67
:0102F20022E9
:0A030B00C2A61202E4C2A70202EA31
:10024C00CFCDCFCECCCE1200427C007D0A12004224
:04025C00ED2430FF5E
:0A026000D2A61202E4C2A70202EACD
:1002A500AE07BE0104ED148006BE0209ED243F44ED
:0602B50080FF12030B2282
:1002D0007F3812030B7F0C12030B7F0612030B7F78
:0402E0000102030B09
:0A031500AC031202A5AF040202605F
:060229008B088A09890A16
:10022F001202A5E4FDAB08AA09A90A8D8275830005
:0C023F00120003FF60061202600D80E94F
:01024B002290
:0C0179007F0AEA24FFFDE434FFFC7E0056
:080185008E0D8F0E8C0F8D1002
:10018D007F017E00E4FBEBC39510E50F6480F874EE
:0E019D008098500AAC0DAD0E1200300B80E8B9
:0101AB002231
:040288008A0A8B0B48
:10028C001202A5AA0CEAD39400400D120179AC0A13
:08029C00AD0B12024C1A80EDBB
:0102A4002237
:100097001202A5C3EA64809480400B7F2B12026092
:1000A7008A168B17800E7F2D120260C3E49BF5170B
:1000B700E49AF516AA15EAD39400400D120179AC1B
:0900C70016AD1712024C1A80ED6F
:0100D000220D
:0400D1008A1A8B1BE1
:1000D5001202A5AA1CEAD3940040297F1012017BC5
:1000E500AC1AAD1BCFCDCFCECCCE120042EF540F04
:1000F500FEC3940AEE5004243080022437FF120216
:04010500601A80D12B
:0101090022D3
:04010A008A1F8B209D
:10010E001202A5AA21EAD394004028EA24FFFDE4B6
:10011E0034FFFC7F027E00120185AC1FAD20CFCDD7
:10012E00CFCECCCE120042EF54012430FF1202602B
:03013E001A80D252
:01014100229B
:1002BB00EF1FAC0670011E4C600A7D027CEFDCFE6A
:0402CB00DDFC80ECEA
:0102CF00220C
:100205008F088C098D0A1203297FA01201DC1202C6
:10021500F3AF081201DC1202F3AF0A1201DC12027D
:04022500F3020332AB
:0201AC008F08BA
:1001AE001203297FA01201DC1202F3AF081201DC48
:1001BE001202F31203297FA11201DC1202F31202C2
:0D01CE006A8F097F0112031F120332AF096F
:0101DB002201
:09032900D2A0D2A1C2A0C2A122FF
:07033200C2A0D2A1D2A0225B
:0201DC00AD076D
:1001DE00E4FB74807E00A803088006CEA2E713CE4F
:1001EE0013D8F8FFEDF582EF558224FF92A0D2A12D
:0601FE00C2A10BBB08DCEE
:0102040022D7
:10026A00E4FFD2A0FED2A130A00D7480A8060880B7
:0D027A0002C313D8FC4207C2A10EBE08E863
:010287002254
:0A031F00EF24FF92A0D2A1C2A12298
:0B02F300D2A0D2A1A2A0E433FFC2A160
:0102FE0022DD
:030000000202FFFA
:0C02FF00787FE4F6D8FD758122020142F0
:10000300BB010CE58229F582E5833AF583E02250B2
:1000130006E92582F8E622BBFE06E92582F8E222FC
:0D002300E58229F582E5833AF583E4932216
:10003000EF8DF0A4A8F0CF8CF0A428CE8DF0A42EE4
:02004000FE229E
:10004200BC000BBE0029EF8DF084FFADF022E4CCA2
:10005200F875F008EF2FFFEE33FEEC33FCEE9DEC6B
:10006200984005FCEE9DFE0FD5F0E9E4CEFD22EDB1
:10007200F8F5F0EE8420D21CFEADF075F008EF2FFB
:10008200FFED33FD4007985006D5F0F222C398FDEC
:050092000FD5F0EA2289
:00000001FF
