:030000000200A259
:0C00A200787FE4F6D8FD7581290200E9A2
:10036B00EF1FAC0670011E4C600A7D027CEFDCFEB9
:04037B00DDFC80EC39
:01037F00225B
:06039400C2A58F80D2A774
:08039A007F027EEFDEFEDFFCB6
:0103A2002238
:0A03A300C2A6120394C2A702039A37
:10030300CFCDCFCECCCE12004D7C007D0A12004D56
:04031300ED2430FFA6
:0A031700D2A6120394C2A702039AB3
:10035500AE07BE0104ED148006BE0209ED243F443C
:0603650080FF1203A32239
:100380007F381203A37F0C1203A37F061203A37FFF
:04039000010203A3C0
:0A03AD00AC03120355AF040203175E
:0602C1008B268A27892824
:1002C700120355E4FDAB26AA27A9288D8275830062
:0C02D70012000EFF60061203170D80E9F4
:0102E30022F8
:0C028E007F0AEA24FFFDE434FFFC7E0040
:08029A008E1E8F1F8C208D21A8
:1002A2007F017E00E4FBEBC39521E5206480F874B6
:0E02B2008098500AAC1EAD1F12003B0B80E876
:0102C000221B
:040321008A118B12A0
:10032500120355AA13EAD39400400D12028EAC11A4
:08033500AD121203031A80ED62
:01033D00229D
:1001E300120355C3EA64809480400B7F2B120317DC
:1001F3008A0D8B0E800E7F2D120317C3E49BF50E21
:10020300E49AF50DAA0CEAD39400400D12028EACC9
:090213000DAD0E1203031A80ED7B
:01021C0022BF
:04021D008A168B179B
:10022100120355AA18EAD3940040297F10120290B4
:10023100AC16AD17CFCDCFCECCCE12004DEF540FB3
:10024100FEC3940AEE5004243080022437FF1203C7
:04025100171A80D127
:010255002286
:040256008A1B8B1C58
:10025A00120355AA1DEAD394004028EA24FFFDE4BC
:10026A0034FFFC7F027E0012029AAC1BAD1CCFCD7C
:10027A00CFCECCCE12004DEF54012430FF1203171B
:03028A001A80D205
:01028D00224E
:03000300012500D4
:10033E005389F0438901758A18758CFCC28DD28C55
:07034E00D2A9D2AFC2B9220F
:10012E00E4F52920B1137F14FE12036B30B1FD7F6D
:10013E00147E0012036B75290120B0147F147E000B
:10014E0012036B30B0FD7F147E0012036B75290213
:10015E0020B2147F147E0012036B30B2FD7F147E2A
:10016E000012036B75290320B3147F147E00120353
:10017E006B30B3FD7F147E0012036B752904AF291B
:01018E00224E
:1002E40012033EC2A012012E8F24E52460F7B4014C
:0F02F400F40525E525C3940240EBE4F52580E6EB
:03000B0002018F60
:0B018F00C0E0C0D075D000C000C00769
:10019A00758A18758CFC0523E52370020522C39421
:1001AA00F4E52294014029752200752300E52570A3
:1001BA000DAFA07801EF08800123D8FDF5A0E52551
:1001CA00B4010DAFA07801EF08800103D8FDF5A0B6
:0901DA00D007D000D0D0D0E032F3
:1000AE000202E4E493A3F8E493A34003F68001F282
:1000BE0008DFF48029E493A3F85407240CC8C33353
:1000CE00C4540F4420C8834004F456800146F6DF22
:1000DE00E4800B0102040810204080900003E47EAF
:1000EE00019360BCA3FF543F30E509541FFEE49317
:1000FE00A360010ECF54C025E060A840B8E493A3DE
:10010E00FAE493A3F8E493A3C8C582C8CAC583CA08
:10011E00F0A3C8C582C8CAC583CADFE9DEE780BEC0
:0100060000F9
:10000E00BB010CE58229F582E5833AF583E02250A7
:10001E0006E92582F8E622BBFE06E92582F8E222F1
:0D002E00E58229F582E5833AF583E493220B
:10003B00EF8DF0A4A8F0CF8CF0A428CE8DF0A42ED9
:02004B00FE2293
:10004D00BC000BBE0029EF8DF084FFADF022E4CC97
:10005D00F875F008EF2FFFEE33FEEC33FCEE9DEC60
:10006D00984005FCEE9DFE0FD5F0E9E4CEFD22EDA6
:10007D00F8F5F0EE8420D21CFEADF075F008EF2FF0
:10008D00FFED33FD4007985006D5F0F222C398FDE1
:05009D000FD5F0EA227E
:00000001FF
