:10000300E4F50875A0FE20B02712005C30B0FD12A5
:10001300005C0508E508C394084003E4F508AF084D
:100023007401A807088002C333D8FCF4F5A080D676
:1000330020B1D312005C30B1FD12005CE5087005FD
:1000430075080780021508AF087401A80708800225
:09005300C333D8FCF4F5A080AD24
:04005C007F147E008F
:10006000EF1FAC0670011E4C600A7D027CC7DCFEEF
:04007000DDFC80EC47
:010074002269
:0300000002007586
:0C007500787FE4F6D8FD758108020003D6
:00000001FF
