:030000000200A259
:0C00A200787FE4F6D8FD75812B0200E9A0
:10039D0054494D4520434C4F434B204E4F573A0047
:0503AD003A20203A0097
:06000300010F01010A01DA
:100370005389F0438901758A18758CFCC28DD28C23
:07038000D2A9D2AFC2B922DD
:10012E001203701203C77BFF7A03799D7D017F0155
:10013E001203127BFF7A0379AD7D037F0212031245
:10014E0020B11D7F147E001203B230B1FD7F147EEC
:10015E00001203B2E50F7005750F018003E4F50F71
:10016E0020B0147F147E001203B230B0FD7F147ED7
:10017E00001203B2E4F50A751602AB0EAA0D7D014C
:10018E007F02120353751602AB11AA107D047F0273
:10019E00120353751602AB0CAA0B7D077F021203D6
:0301AE0053809DDE
:03000B000201B13E
:0401B100C0E0C0D01A
:1001B500758A18758CFC0509E50970020508C39454
:1001C500E8E50894034063750800750900E50A70C1
:1001D5000FF50BF50CF510F511F50DF50E750A017A
:1001E500E50FB40108050CE50C7002050BC3E50C21
:1001F500943CE50B94004032750B00750C0005111D
:10020500E51170020510943CE5109400401C050EA4
:10021500E50E7002050D7510007511009418E50DB9
:0A02250094004006750D00750E00F0
:05022F00D0D0D0E03248
:1003B200EF1FAC0670011E4C600A7D027CEFDCFE72
:0403C200DDFC80ECF2
:0103C6002214
:0603DB00C2A58F80D2A72D
:0803E1007F027EEFDEFEDFFC6F
:0103E90022F1
:0A03EA00C2A61203DBC2A70203E162
:10033500CFCDCFCECCCE12004D7C007D0A12004D24
:04034500ED2430FF74
:0A034900D2A61203DBC2A70203E1F3
:10038700AE07BE0104ED148006BE0209ED243F440A
:0603970080FF1203EA22C0
:1003C7007F381203EA7F0C1203EA7F061203EA7FE3
:0403D700010203EA32
:0A03F400AC03120387AF04020349B3
:060312008B128A1389140E
:10031800120387E4FDAB12AA13A9148D827583001A
:0C03280012000EFF60061203490D80E970
:0103340022A6
:0C02DF007F0AEA24FFFDE434FFFC7E00EF
:0802EB008E178F188C198D1A73
:1002F3007F017E00E4FBEBC3951AE5196480F87473
:0E0303008098500AAC17AD1812003B0B80E832
:0103110022C9
:040353008A148B1568
:10035700120387AA16EAD39400400D1202DFAC14E9
:08036700AD151203351A80EDFB
:01036F00226B
:10023400120387C3EA64809480400B7F2B12034926
:100244008A208B21800E7F2D120349C3E49BF52164
:10025400E49AF520AA1FEAD39400400D1202DFAC01
:0902640020AD211203351A80EDD2
:01026D00226E
:04026E008A248B252E
:10027200120387AA26EAD3940040297F101202E1D2
:10028200AC24AD25CFCDCFCECCCE12004DEF540F46
:10029200FEC3940AEE5004243080022437FF120376
:0402A200491A80D1A4
:0102A6002235
:0402A7008A298B2AEB
:1002AB00120387AA2BEAD394004028EA24FFFDE42B
:1002BB0034FFFC7F027E001202EBAC29AD2ACFCDBE
:1002CB00CFCECCCE12004DEF54012430FF12034998
:0302DB001A80D2B4
:0102DE0022FD
:1000AE0002012EE493A3F8E493A34003F68001F239
:1000BE0008DFF48029E493A3F85407240CC8C33353
:1000CE00C4540F4420C8834004F456800146F6DF22
:1000DE00E4800B0102040810204080900003E47EAF
:1000EE00019360BCA3FF543F30E509541FFEE49317
:1000FE00A360010ECF54C025E060A840B8E493A3DE
:10010E00FAE493A3F8E493A3C8C582C8CAC583CA08
:10011E00F0A3C8C582C8CAC583CADFE9DEE780BEC0
:0100090000F6
:10000E00BB010CE58229F582E5833AF583E02250A7
:10001E0006E92582F8E622BBFE06E92582F8E222F1
:0D002E00E58229F582E5833AF583E493220B
:10003B00EF8DF0A4A8F0CF8CF0A428CE8DF0A42ED9
:02004B00FE2293
:10004D00BC000BBE0029EF8DF084FFADF022E4CC97
:10005D00F875F008EF2FFFEE33FEEC33FCEE9DEC60
:10006D00984005FCEE9DFE0FD5F0E9E4CEFD22EDA6
:10007D00F8F5F0EE8420D21CFEADF075F008EF2FF0
:10008D00FFED33FD4007985006D5F0F222C398FDE1
:05009D000FD5F0EA227E
:00000001FF
