:0E06EC0020202D20202D0020203A20203A0032
:1006B5005389F0758ACD758CD4C28DD28CD2A9D2CE
:0406C500AFC2B922E5
:10023E001206C91200031206B57BFF7A0679EC7D11
:10024E00017F011206117BFF7A0679F37D017F0291
:10025E00120611752D011202CFE51AFB3395E0FA45
:10026E00750E027D017F01120652E51BFB3395E0F0
:10027E00FA750E027D047F01120652E51CFB3395C2
:10028E00E0FA750E027D077F01120652E51DFB3363
:10029E0095E0FA750E027D017F02120652E51EFBF5
:1002AE003395E0FA750E027D047F02120652E51FA9
:1002BE00FB3395E0FA750E027D077F02120652801F
:0102CE00959A
:03000B0002066F7B
:04066F00C0E0C0D057
:10067300758ACD758CD4052BE52BD3941440037563
:020683002B004A
:05068500D0D0D0E032EE
:0606DD00C2A58F80D2A728
:0806E3007F027EEFDEFEDFFC6A
:0106EB0022EC
:0A06FA00C2A61206DDC2A70206E345
:10063400CFCDCFCECCCE1201E97C007D0A1201E9E8
:04064400ED2430FF72
:0A064800D2A61206DDC2A70206E3E7
:10068A00AE07BE0104ED148006BE0209ED243F4404
:06069A0080FF1206FA22A7
:1006C9007F381206FA7F0C1206FA7F061206FA7FA5
:0406D900010206FA1A
:0A070400AC0312068AAF0402064897
:060611008B0A8A0B890C24
:1006170012068AE4FDAB0AAA0BA90C8D827583002A
:0C0627001201AAFF60061206480D80E9CF
:0106330022A4
:0C05B8007F0AEA24FFFDE434FFFC7E0013
:0805C4008E0F8F108C118D12B7
:1005CC007F017E00E4FBEBC39512E5116480F874A7
:0E05DC008098500AAC0FAD101201D70B80E8CA
:0105EA0022EE
:040652008A0C8B0D76
:1006560012068AAA0EEAD39400400D1205B8AC0C15
:08066600AD0D1206341A80EDFF
:01066E002269
:10050D0012068AC3EA64809480400B7F2B12064842
:10051D008A188B19800E7F2D120648C3E49BF5199E
:10052D00E49AF518AA17EAD39400400D1205B8AC59
:09053D0018AD191206341A80ED04
:010546002292
:040547008A238B2454
:10054B0012068AAA25EAD3940040297F101205BA15
:10055B00AC23AD24CFCDCFCECCCE1201E9EF540FCF
:10056B00FEC3940AEE5004243080022437FF120697
:04057B00481A80D1C9
:01057F002259
:040580008A288B2911
:1005840012068AAA2AEAD394004028EA24FFFDE44A
:1005940034FFFC7F027E001205C4AC28AD29CFCD08
:1005A400CFCECCCE1201E9EF54012430FF1206481D
:0305B4001A80D2D8
:0105B7002221
:1006A000EF1FAC0670011E4C600A7D027CC7DCFEA9
:0406B000DDFC80EC01
:0106B4002223
:1003E800E4F53075900FE590640F606C7F147E0023
:1003F8001206A0E590640F605F75900FAF90EF2430
:10040800F5601024FE601114601324077012E4F5DF
:1004180030800D7530018008753002800375300317
:100428007590F0AF90EF2450601124E0601124F033
:10043800601124707013853030800E740480067447
:10044800088002740C2530F530E59064F060097F6F
:0A045800147E001206A080F1AF3000
:010462002277
:09070E00071A170C1F173B391DD7
:07000300C2B5C2B602000EF7
:050463002DFDEE3CFC44
:060468008C0A8D0BAB07AE
:10046E00D2B5E4FD74017E00A805088005C333CE25
:10047E0033CED8F9FFEBF582EF558224FF92B4D23A
:10048E00B6C2B60DBD08DDE4FD74017E00A80508F8
:10049E008005C333CE33CED8F9FFE50A5EFEE50BF9
:1004AE005F4E24FF92B4D2B6C2B60DBD08DBC2B504
:0104BE00221B
:0204BF00AD0787
:1004C100E4F9430501D2B5FB74017E00A80308805D
:1004D10005C333CE33CED8F9FFEDF582EF55822433
:1004E100FF92B4C2B6D2B60BBB08DDE4FBD2B6C2F2
:1004F100B630B40D7401A803088002C333D8FC429E
:0B050100010BBB08E8C2B4C2B5AF019B
:01050C0022CC
:10000E00E4FDFC7F8E120468E51A75F00A12018871
:10001E00FF3395E0FEEFC4F8540FC868FFEEC454EA
:10002E00F048FEE51A75F00A120188ADF0ED339531
:10003E00E0FCEF7F8C120463E51B75F00A12018859
:10004E00FF3395E0FEEFC4F8540FC868FFEEC454BA
:10005E00F048FEE51B75F00A120188ADF0ED339500
:10006E00E0FCEF7F88120463E51C75F00A1201882C
:10007E00FF3395E0FEEFC4F8540FC868FFEEC4548A
:10008E00F048FEE51C75F00A120188ADF0ED3395CF
:10009E00E0FCEF2DFDEE3CFC7F86120468E51D753D
:1000AE00F00A120188FF3395E0FEEFC4F8540FC832
:1000BE0068FFEEC454F048FEE51D75F00A12018883
:1000CE00ADF0ED3395E0FCEF2DFDEE3CFC7F8412A0
:1000DE000468E51E75F00A120188FF3395E0FEEF05
:1000EE00C4F8540FC868FFEEC454F048FEE51E7500
:1000FE00F00A120188ADF0ED3395E0FCEF2DFDEE28
:10010E003CFC7F82120468E51F75F00A120188FF1D
:10011E003395E0FEEFC4F8540FC868FFEEC454F0F8
:10012E0048FEE51F75F00A120188ADF0ED3395E03B
:10013E00FCEF2DFDEE3CFC7F80120468E52075F08F
:10014E000A120188FF3395E0FEEFC4F8540FC86819
:10015E00FFEEC454F048FEE52075F00A120188AD9A
:10016E00F0ED3395E0FCEF2DFDEE3CFC7F8A1204A2
:0A017E00687D807C007F8E0204681B
:1002CF007F8C1204BFEFC4540F75F00AA4FEEF54D5
:1002DF000F2EF51A7F881204BFEFC4540F75F00A62
:1002EF00A4FEEF540F2EF51B7F861204BFEFC454EC
:1002FF000F75F00AA4FEEF540F2EF51C7F84120425
:10030F00BFEFC4540F75F00AA4FEEF540F2EF51D66
:10031F007F821204BFEFC4540F75F00AA4FEEF548E
:10032F000F2EF51E7F801204BFEFC4540F75F00A15
:10033F00A4FEEF540F2EF51F7F8A1204BFEFC45493
:0C034F000F75F00AA4FEEF540F2EF520ED
:01035B00227F
:01000A0022D3
:1005EB00EF147021E4F52EF52FB2A57F017E0012DA
:1005FB0006A0052FE52F7002052EC394E8E52E9477
:05060B000340E680DF62
:0106100022C7
:0300000002035C9C
:0C035C00787FE4F6D8FD7581300203A321
:10018800C2D530F707B2D563F0FF05F030E70CB2FF
:10019800D5F4048463F0FF05F080018430D502F4BF
:0201A80004222F
:1001AA00BB010CE58229F582E5833AF583E022500A
:1001BA0006E92582F8E622BBFE06E92582F8E22254
:0D01CA00E58229F582E5833AF583E493226E
:1001D700EF8DF0A4A8F0CF8CF0A428CE8DF0A42E3C
:0201E700FE22F6
:1001E900BC000BBE0029EF8DF084FFADF022E4CCFA
:1001F900F875F008EF2FFFEE33FEEC33FCEE9DECC3
:10020900984005FCEE9DFE0FD5F0E9E4CEFD22ED08
:10021900F8F5F0EE8420D21CFEADF075F008EF2F52
:10022900FFED33FD4007985006D5F0F222C398FD43
:050239000FD5F0EA22E0
:1003680002023EE493A3F8E493A34003F68001F26B
:1003780008DFF48029E493A3F85407240CC8C33396
:10038800C4540F4420C8834004F456800146F6DF65
:10039800E4800B010204081020408090070EE47EE0
:1003A800019360BCA3FF543F30E509541FFEE4935A
:1003B800A360010ECF54C025E060A840B8E493A321
:1003C800FAE493A3F8E493A3C8C582C8CAC583CA4C
:1003D800F0A3C8C582C8CAC583CADFE9DEE780BE04
:0107170000E1
:00000001FF
